:020000020000FC
:0200000028C016
:0200040018954D
:02000800189549
:02000C00189545
:02001000189541
:0200140018953D
:0200180071C1B4
:02001C00189535
:02002000189531
:06002400A9C11895189512
:02002C0001C110
:020030003CC1D1
:0200340049C1C0
:0200380078C18D
:02003C00189515
:02004000189511
:0200440018950D
:02004800189509
:02004C00189505
:1000500018950FE50DBF04E00EBF0FE007BB00EFE2
:1000600008BB06E001BB09EF02BB0FEF04BB0CEFBE
:100070000ABB01E000930B0003E210E009B910BDD8
:1000800000E90AB906E800BD00E0009307000EE8A9
:1000900006B901E009BF00E00FBD08E000932E00A3
:1000A00018ED00E010932B0000932A00C0E6D0E08A
:1000B00000E013E009931A951030E1F7C8E6D0E0AC
:1000C00000E017E009931A951030E1F7C0E6D0E0A0
:1000D0000027112722273327442733275527EE27C8
:1000E0006627772788279927AA275061789405E003
:1000F00003BF54FF09C099C052FD01C0FDCF83C0AA
:1001000094C052FD01C0FDCF50FD01C0F2CF099156
:1001100009910F70102F03701C7000FD01C003C007
:1001200001FD1BC003C001FD07C00CC0713019F4F4
:10013000603009F412C015C07E3F19F4633009F431
:100140000CC00FC0713019F4603009F406C07E3F56
:1001500019F4633009F401C004C0689401F900F98E
:1001600000C012FD01C003C013FD1BC003C011FD80
:1001700007C00CC0913019F4803009F412C015C0CA
:100180009E3F19F4833009F40CC00FC0913019F46C
:10019000803009F406C09E3F19F4833009F401C091
:1001A00004C0689412F913F900C0100F18BBC8E618
:1001B000D0E005E0099308B3099369937993899393
:1001C000999337E011270A91100F3A95313009F0D1
:1001D000FACF1095C8E6D0E006E0C00F0027D01F88
:1001E00018839298C8E6D0E009910CB908E20AB9E0
:1001F00000E2689402F9E89401F900BD51FD01C0E4
:10020000FDCF507176CFE89453FF689453F907B14E
:10021000007E53FF08C0B1E0026007B9E89452F9CC
:10022000E89454F90895B0E0F8CF0EEC06B964CF25
:100230000F931F930FB70F9300910C0010910B00B9
:100240001C7109F02DC009932395122F113031F044
:10025000123091F0400F133089F022C0053001F5C3
:100260000BB1E89400F90BB9400F09B7689404F991
:1002700009BF09E00EBD14C0400F12C0009504175D
:1002800009F4516009B7E89404F909BF08E00EBD0C
:1002900000E010E01DBD0CBD22274427C0E6D0E0E1
:1002A0000F910FBF1F910F9118950F930FB70F93D9
:1002B00008E40AB9C8E6D0E00991E89450F90CB90D
:1002C0000F910FBF0F9118950F930FB70F931F93B7
:1002D0003395373019F009910CB90BC033270BB1A6
:1002E000689400F90BB900E90AB9C0E6D0E05260A1
:1002F000929A1F910F910FBF0F9118950F931F9313
:100300000FB70F9309B7E89404F909BF08E00EBDD1
:1003100000E010E01DBD0CBD22274427C0E6D0E060
:100320000F910FBF1F910F9118950F931F930FB748
:100330000F930091040010910500600F711FA395A9
:10034000A83039F00EEC06B91F910F910FBF0F9135
:100350001895A3E00027669508F400E87695702BC1
:10036000AA95A03009F0F7CFAA275460B13009F060
:10037000EBCF972F862F08950F931F930FB70F93EF
:10038000E395E23011F45061EE270F910FBF1F91FA
:040390000F9118951C
:00000001FF
