:020000020000FC
:0200000028C016
:0200040018954D
:02000800189549
:02000C00189545
:02001000189541
:0200140018953D
:020018001FC106
:02001C00189535
:02002000189531
:0200240018952D
:02002800189529
:02002C00AFC063
:02003000EAC024
:02003400F7C013
:0200380026C1DF
:02003C00189515
:02004000189511
:0200440018950D
:02004800189509
:02004C00189505
:1000500018950FE50DBF04E00EBF0FE007BB00EFE2
:1000600008BB06E001BB09EF02BB0FEF04BB0CEFBE
:100070000ABB01E000930B0003E210E009B910BDD8
:1000800000E90AB906E800BD00E00093070006E0B9
:1000900006B901E009BF00E00FBD08E000932E00A3
:1000A00018ED00E010932B0000932A00C0E6D0E08A
:1000B00000E013E009931A951030E1F7C8E6D0E0AC
:1000C00000E017E009931A951030E1F7C0E6D0E0A0
:1000D0000027112722273327442733275527662750
:1000E000772788279927AA27789450FD01C0FDCF4C
:1000F000099109910F7008BB44C052FD01C0FDCFAA
:1001000030C03FC052FD01C0FDCFC8E6D0E005E0E1
:10011000099308B30993699379938993999337E085
:1001200011270A91100F3A95313009F0FACF109546
:10013000C8E6D0E006E0C00F0027D01F18839298D1
:10014000C8E6D0E009910CB908E20AB900E2689467
:1001500002F9E89401F900BD51FD01C0FDCF55271A
:10016000C4CFE89453FF689453F907B1007E53FF5E
:1001700006C0B1E0026007B9E89452F90895B0E012
:10018000FACF0EE806B90EEC06B908950F931F9347
:100190000FB70F9300910C0010910B001C7109F028
:1001A0002DC009932395122F113031F0123091F0A8
:1001B000400F133089F022C0053001F50BB1E894EF
:1001C00000F90BB9400F09B7689404F909BF09E0B9
:1001D0000EBD14C0400F12C00095041709F4516001
:1001E00009B7E89404F909BF08E00EBD00E010E08B
:1001F0001DBD0CBD22274427C0E6D0E00F910FBFE4
:100200001F910F9118950F930FB70F9308E40AB938
:10021000C8E6D0E00991E89450F90CB90F910FBFEE
:100220000F9118950F930FB70F931F933395373096
:1002300019F009910CB90BC033270BB1689400F980
:100240000BB900E90AB9C0E6D0E05260929A1F915A
:100250000F910FBF0F9118950F931F930FB70F9327
:1002600009B7E89404F909BF08E00EBD00E010E00A
:100270001DBD0CBD22274427C0E6D0E00F910FBF63
:100280001F910F9118950F931F930FB70F93009124
:10029000040010910500600F711FA395A83039F07C
:1002A0000EEC06B91F910F910FBF0F911895A3E0A7
:1002B0000027669508F400E87695702BAA95A03083
:1002C00009F0F7CFAA275460B13009F0EBCF972F90
:0402D000862F0895D8
:00000001FF
